:100000000C9434000C9451000C9451000C94510049
:100010000C9451000C9451000C9451000C9451001C
:100020000C9451000C9451000C9451000C949B08BA
:100030000C9451000C9451000C9451000C945100FC
:100040000C9451000C9451000C9451000C945100EC
:100050000C9451000C9451000C9451000C945100DC
:100060000C949E080C94510011241FBECFEFD8E0D1
:10007000DEBFCDBF11E0A0E0B1E0ECE2F5E102C0EF
:1000800005900D92A831B107D9F727E0A8E1B1E0BA
:1000900001C01D92AC3CB207E1F70E94B8090C9474
:1000A000940A0C9400008091CB078F5F8093CB075C
:1000B00008958091CB07882321F081E080939907F0
:1000C0000895109299078091C00729E0482F50E0C9
:1000D000289FF0011124E456F84F9081992349F1AB
:1000E000A181B28112960D90BC91A02DB283A18303
:1000F000829F900111242156384FA217B30729F48B
:1001000012962D913C913283218399E0949FF001C6
:10011000959FF00D1124E456F84F0180F281E02DF7
:100120002681378130939B0720939A078093C007DD
:1001300008958150CBCFFC01DB010FB6F8940F92EC
:1001400040919507509196078D919C9111978F3F03
:100150009807F9F0218132816091900770817617BC
:1001600019F042175307D8F4BA01621B730B6817D2
:10017000790798F4841B950B820F931F8D939C93A2
:100180008091900780838091950790919607928344
:10019000818380E00F900FBE08951D921C9281E034
:1001A000F9CFE0919307F09194078081811107C006
:1001B0008FEF9FEF90938F0780938E070895E091C4
:1001C0009307F09194070580F681E02D0680F78172
:1001D000E02D82819381EECFCF93DF939C01FB01D1
:1001E000DC011196CD91DC91D383C2838C819D81FA
:1001F000958384838C819D81DC0113967C936E931F
:1002000012977D836C8331872087F90180818F5F0E
:100210008083DF91CF910895CF93DF93DC01FB01C1
:10022000208131812F3F3207C9F417966D917C915F
:100230001897EB018A819B8193838283EC01FD8374
:10024000EC8375836483EB01FB83EA83B187A0872A
:100250008C918F5F8C93DF91CF910895CD010396A0
:10026000BC01EC018A819B81EC01488159812417F2
:100270003507B0F7DECF0F920FB6F8940F921F92AA
:1002800011242F923F924F925F926F927F928F92A2
:100290009F92AF92BF92CF92DF92EF92FF920F9315
:1002A0001F932F933F934F935F936F937F938F93FE
:1002B0009F93AF93BF93CF93DF93EF93FF93A0915F
:1002C0009A07B0919B070DB60D920EB60D920E9443
:1002D0005900A0919A07B0919B07CD91CDBFDD91B8
:1002E000DEBFFF91EF91DF91CF91BF91AF919F91D1
:1002F0008F917F916F915F914F913F912F911F91BE
:100300000F91FF90EF90DF90CF90BF90AF909F90B4
:100310008F907F906F905F904F903F902F901F90A5
:100320000F900FBE0F90089590E080E008958091A7
:100330009A0190E091958195910908958FEF9FEF33
:1003400008958FEF9FEF0895089520919401260F4F
:100350003327331F21323105E4F420919301FC014E
:1003600090E080E0243061F082E0089530919401C3
:100370002191DC01AD58BE4FA30FB11D2C93019606
:100380008617A0F380919401680F6093940180E038
:10039000089581E00895CF93DF930F92CDB7DEB734
:1003A000698361E0CE0101960E94A50181E090E0A1
:1003B0000F90DF91CF910895CF93DF93CB01EA01A6
:1003C000642F0E94A501CE01DF91CF91089585EDA4
:1003D0008093BC008091BC0084FDFCCF10929301FF
:1003E0000895CF93DF93FC01A085B185828193812D
:1003F00024813581EC013D832C83C481D5819B838D
:100400008A8311968D919C911297E817F90721F430
:100410001296DC93CE931197118610868C918150A1
:100420008C938C91DF91CF910895CF92DF92EF92D0
:10043000FF920F931F93CF93DF938091CB0781118E
:1004400096C000919507109196070F5F1F4F10936C
:1004500096070093950701151105B9F4809193074C
:1004600090919407209191073091920730939407CF
:100470002093930790939207809391078091900720
:100480008F5F809390070E94D10080918E0790919A
:100490008F07C0E008171907E8F4E0919A07F09178
:1004A0009B07E689B9E0EB9FF0011124E456F84F71
:1004B0008081823008F0C1E0809199078111C1E00C
:1004C0008C2FDF91CF911F910F91FF90EF90DF90D4
:1004D000CF900895D9E0E0919307F091940780813F
:1004E000811107C08FEF9FEF90938F0780938E0746
:1004F000D4CFE0919307F09194070580F681E02D29
:10050000E680F780D70112968D919C910817190704
:1005100058F36701B2E0CB0ED11CC6010E94F10175
:10052000F70184899589892B21F0C7010C960E94D7
:10053000F101D70156968C919091C007981710F44D
:100540008093C0078D9FC0011124B6018456984F37
:100550000E94EC00E0919A07F0919B07D701569614
:100560009C918689981708F4B6CFC1E0B4CF8091EA
:100570009707909198070196909398078093970713
:10058000C0E09ECFEF92FF920F931F93CF93DF9324
:100590000FB6F8940F928091CB0781508093CB07D0
:1005A0008091CB07882351F080E00F900FBEDF9140
:1005B000CF911F910F91FF90EF9008958091CA07FE
:1005C000882391F3D0E0C0E089E0F82EEE24E39494
:1005D00029C0E091C607F091C707C681D781CE0137
:1005E0000C960E94F1018E010E5F1F4FC8010E9400
:1005F000F1018E899091C007981710F48093C0077D
:100600008F9DC0011124B8018456984F0E94EC00C0
:10061000E0919A07F0919B079E898689981710F0C0
:10062000E09299078091C1078111D3CFCD2B11F0B2
:100630000E94D100C0919707D0919807209761F050
:1006400011E00E9415028111109399072197C9F7B3
:10065000109298071092970780919907882309F4C0
:10066000A3CF0E943B0181E0A0CF0F931F93CF93B4
:10067000DF93EC010E9453008091790790917A07F3
:10068000892B31F48EE991E090937A078093790772
:1006900080919B0190919C01C80FD91FCB3D25E013
:1006A000D207A8F48C179D0790F400917907109158
:1006B0007A07080F191FD0939C01C0939B010E94D9
:1006C000C202C801DF91CF911F910F91089510E0F0
:1006D00000E0F5CFAF92BF92CF92DF92EF92FF9200
:1006E0000F931F93CF93DF936C015B017A0185E534
:1006F00090E00E943503EC01892B61F48FEFDF91CC
:10070000CF911F910F91FF90EF90DF90CF90BF900E
:10071000AF90089588E290E00E9435038C01009725
:1007200069F3FC01D08FC78BF501DC015996950167
:10073000285F3F4F81918D93882319F0E217F307CB
:10074000C9F7F80110A2168A11A212A21386128606
:10075000158A148A1187008784E090E09587848742
:10076000138B028B13A214A215A216A217A2FE01CC
:10077000EC5AFF4F91E19083319782E28083319769
:1007800023E320833297DC24CD24DC24D182C08271
:1007900031971082319720E820833197108231976A
:1007A00022E02083319723E02083319724E02083C7
:1007B000319725E02083319726E02083319727E089
:1007C0002083319728E02083319729E020833197D7
:1007D00020E1208331979083319792E19083319784
:1007E00093E19083319794E1908395E19FAF96E1F7
:1007F0009EAF97E19DAF98E19CAF99E19BAF90E2EE
:100800009AAF91E299AF88AF83E28FAB1EAA1DAA7F
:1008100086E28CAB87E28BAB88E28AAB89E289AB5C
:1008200080E388AB81E38FA7AE96F801D183C083C4
:10083000F701118300830FB6F8940F928091CA07D5
:100840008F5F8093CA0780919A0790919B07892BAD
:1008500009F0C4C010939B0700939A078091CA07C0
:10086000813009F090C0ECE9F7E030E020E08FEF54
:100870009FEF69E0AF014D5F5F4F528341839483E7
:1008800083835683458350874783629FD001639F4C
:10089000B00D1124A456B84F1C922F5F3F4F3996CC
:1008A0002430310539F724E231E0309323012093DD
:1008B00022019093250180932401309327012093F6
:1008C00026013093290120932801109221012BE168
:1008D00031E030931A012093190190931C01809309
:1008E0001B0130931E0120931D01309320012093A2
:1008F0001F011092180124EC37E03093C3072093B6
:10090000C2079093C5078093C4073093C70720930D
:10091000C6073093C9072093C8071092C10728E87B
:1009200037E0309387072093860790938907809359
:10093000880730938B0720938A0730938D07209385
:100940008C07109285072EE737E030937D072093C0
:100950007C0790937F0780937E07309381072093D5
:100960008007309383072093820710927B0781E2F0
:1009700091E0909394078093930788E191E090939E
:1009800092078093910780912A018F5F80932A01BB
:10099000F80186899091C007981710F48093C007DA
:1009A000F9E08F9FC0011124B8016E5F7F4F84561C
:1009B000984F0E94EC000F900FBE80919501882304
:1009C00059F0E0919A07F0919B079689F801868982
:1009D000981710F40E943B0181E091CE809195011F
:1009E0008111D1CFE0919A07F0919B079689F80188
:1009F0008689891740F210939B0700939A07C3CF0B
:100A00000F920FB6F8940F921F9211242F923F92DB
:100A10004F925F926F927F928F929F92AF92BF920E
:100A2000CF92DF92EF92FF920F931F932F933F93FA
:100A30004F935F936F937F938F939F93AF93BF93E6
:100A4000CF93DF93EF93FF93A0919A07B0919B0709
:100A50000DB60D920EB60D920E94150281110E94E4
:100A60005900A0919A07B0919B07CD91CDBFDD9120
:100A7000DEBFFF91EF91DF91CF91BF91AF919F9139
:100A80008F917F916F915F914F913F912F911F9126
:100A90000F91FF90EF90DF90CF90BF90AF909F901D
:100AA0008F907F906F905F904F903F902F901F900E
:100AB0000F900FBE0F9008950F931F93CF93DF9366
:100AC000DC011596ED91FC91C681D7818E01045F02
:100AD0001F4FC8010E94F1018091CB07811125C0F1
:100AE0000A501109C8010E94F1018E899091C00736
:100AF000981710F48093C007B9E08B9FC0011124B0
:100B0000B8018456984F0E94EC00E0919A07F0914A
:100B10009B079E898689891760F481E080939907F5
:100B2000DF91CF911F910F910895B80181EC97E06B
:100B3000EACF80E0F5CFEF92FF920F931F93CF9310
:100B4000DF93EC010FB6F8940F921E8D7C0181E1CA
:100B5000E80EF11C01E01116D4F08FEF8E8F0F908C
:100B60000FBE0FB6F8940F921D8D7E0188E0E80E3F
:100B7000F11C01E01116B4F08FEF8D8F0F900FBEB6
:100B8000DF91CF911F910F91FF90EF900895898988
:100B9000882319F3C7010E945C058111009399070E
:100BA0001150D9CF8885882339F3C7010E945C058D
:100BB0008111009399071150DDCF80918407811135
:100BC00007C080919C078230C0F30E943B01F5CFA3
:100BD0000FB6F8940F92E0918A07F0918B07868107
:100BE000978102960E94F1018091CA0781508093FB
:100BF000CA07809184078150809384070F900FBEAD
:100C0000DCCFEF92FF921F93CF93DF93EC01162F6F
:100C1000E0909507F090960780919A0790919B0736
:100C200002960E94F101CF3FDC0789F4112379F08D
:100C300060919A0770919B076E5F7F4F8BE797E0FB
:100C4000DF91CF911F91FF90EF900C94EC00CE0DAF
:100C5000DF1DE0919A07F0919B07D383C2836091D7
:100C60009A0770919B07CE15DF0568F48091910774
:100C7000909192076E5F7F4FDF91CF911F91FF9010
:100C8000EF900C940C0180919307909194076E5F04
:100C90007F4F0E940C0180918E0790918F07C8179B
:100CA000D90720F4D0938F07C0938E07DF91CF919F
:100CB0001F91FF90EF900895CF93DF93EC010E9476
:100CC0005300209195073091960748815981CA01B8
:100CD0008C509E4F2417350770F48417950770F0D9
:100CE000998388830E94C202811102C00E943B0145
:100CF000DF91CF9108958417950718F028173907C9
:100D000078F79983888360E0821B930B0E94010629
:100D1000E9CFCF93DF93CDB7DEB728970FB6F8941E
:100D2000DEBF0FBECDBF0FB6F8940F92809195072E
:100D3000909196070F900FBE9F838E8366246A94CE
:100D4000762C9E012C5F3F4FCE01019649E0542E38
:100D500054E0C52ED12C2887232E382E492E009101
:100D60009801109199017D826C82B12C90E048012C
:100D700081E1880E911C0FB6F8940F92D8015A9613
:100D80008C915A978823D1F181505A968C935A9717
:100D90008D919C91892BA1F480919A0790919B074A
:100DA000892B39F0E0919A07F0919B0782A18F5F20
:100DB00082A380919A0790919B07F8019583848381
:100DC000D80118968C91882339F0C80108960E94A2
:100DD0005C0581110E943B010F900FBE8BB118E0A2
:100DE00081278BB9CE0106960E945C068BB18127C4
:100DF0008BB9CE0106960E945C06B1CF2C813D8155
:100E0000232B19F40F900FBEAACF911109C0809126
:100E10009007898380919507909196079B838A8399
:100E20000F900FBE0E9453000FB6F8940F92F80176
:100E3000858D8F3F09F4158ED8015E968C915E9753
:100E40008F3F11F45E961C920F900FBE6885722D35
:100E5000832D942D0E949B00811195C00FB6F894AC
:100E60000F92F801928D0F900FBE911186C02081D4
:100E70003181232B09F053C00FB6F8940F92E48010
:100E8000F580E114F10409F447C0D70156968C911E
:100E90005697E0919A07F0919B079689891708F079
:100EA00060C01C962D913C911D9737FD0CC0E091C0
:100EB0009A07F0919B0796899601291B31091D9687
:100EC0003C932E931C97859DC00111248456984F06
:100ED000F7012285338528173907D9F55701F2E044
:100EE000AF0EB11CC5010E94F101E0919A07F0918B
:100EF0009B078689D70156968C939091C0079817C7
:100F000010F48093C007859DC0011124B50184565B
:100F1000984F0E94EC0081E00F900FBEB82EEC803D
:100F2000FD8060919A0770919B07645F7F4FC401B9
:100F30000E940C0161E0C7010E940106C8010E94E5
:100F40009B050E94C202811102C00E943B0191E0F8
:100F500012CFE0919A07F0919B078689F701868B63
:100F6000DACFE0919A07F0919B0781E091962C915E
:100F70009689291788F280E0CFCFC8010E949B058F
:100F80000E94C202E4CFC8010E949B050E94C202D7
:100F90000FB6F8940F92F801828D0F900FBE811159
:100FA000D6CFBB2009F4DBCE0FB6F8940F9281891F
:100FB000882339F00688F789E02D8081B4E0B81BDA
:100FC0008B2FF801048115810115110509F41ACF41
:100FD000D80191969C91981708F4982FF80186896A
:100FE000981709F40FCF22A1213009F00BCF968B6F
:100FF0002485358537FD05C09601291B31093587C4
:101000002487859DC00111248456984FD8011A96D3
:101010002D913C912817390709F0F4CE7801B2E000
:10102000EB0EF11CC7010E94F101F8018689909135
:10103000C007981710F48093C007859DC001112444
:10104000B7018456984F0E94EC00DCCE84E0E82E75
:10105000F12C99E0C92E4C9BFECFC0919801D09104
:1010600099010FB6F8940F929A8D4C8D8B8D98172D
:10107000E8F4DA8C411146C088819981892B11F0FE
:1010800080E008C00C811D810115110591F480E0FC
:101090001D821C82D394DA8E9989992321F0CE0186
:1010A00041960E945C0581110E943B010F900FBE8A
:1010B000D2CFF80182A1815082A3268991A129175C
:1010C00031F38111E4CF5801F2E0AF0EB11CC5013C
:1010D0000E94F101F80181A1868B9701281B31093B
:1010E000358724879091C007981710F48093C00724
:1010F0008C9DC0011124B5018456984F0E94EC00CC
:1011000081E0C6CF50E070E060E08A819B810E9460
:101110008B0A2C8D8A819B81820F911D9B838A83F0
:101120002C813D818217930708F4AACF8881998189
:101130009B838A83A5CF0E94000518951F920F926A
:101140000FB60F9211242F933F934F935F936F939A
:101150007F938F939F93AF93BF93EF93FF93909160
:10116000B900892F887F803509F4BEC008F042C0DD
:10117000803309F4B4C098F5883101F1D0F4883097
:1011800009F4A5C0803109F4A2C0882309F4ECC099
:10119000FF91EF91BF91AF919F918F917F916F914F
:1011A0005F914F913F912F910F900FBE0F901F9025
:1011B0001895803209F493C0883251F790917101EB
:1011C00080917001981778F5E091710181E08E0FA0
:1011D00080937101F0E0E05BFE4F80817AC0803443
:1011E00009F48EC0883409F47CC0883389F6809372
:1011F0004D016BC0803A09F49DC0B8F5803809F400
:1012000087C050F5803611F1D8F4883509F6E091A1
:10121000710181E08E0F809371018091BB00F0E03D
:10122000E05BFE4F808380914F0181115AC081E0C5
:1012300080934E0184EA8093BC0010929301A8CF62
:10124000803721F0987E983609F0A2CF83E0809312
:10125000930110924C013FC0803909F459C0987E27
:10126000983809F095CF85E837C0883BC9F048F534
:10127000883A19F0803B09F08BCF84E0809393018A
:1012800010922B0110929401F0E0E0E0099580911A
:101290009401811105C081E0809394011092730143
:1012A000E0912B0181E08E0F80932B01F0E0ED584F
:1012B000FE4F80818093BB0090912B01809194011F
:1012C00023C0907F903C09F063CF85ECB4CF809130
:1012D00072018093BB0085EC8093BC0059CF809352
:1012E0004D010E94E70154CFE091710181E08E0F22
:1012F000809371018091BB00F0E0E05BFE4F808342
:101300009091710180917001981708F0ACCFE3CFF4
:1013100080914C01803208F0A6CFE0914C0181E031
:101320008E0F80934C018091BB00F0E0E45DFE4F96
:101330008083D1CF85EC8093BC0010929301809183
:101340004C01803230F4E0914C01F0E0E45DFE4F5E
:10135000108260914C0170E08CE291E0F0E0E0E0FE
:10136000099510924C0114CF10924D01BACF0895F7
:1013700000D000D0CDB7DEB78FE190E00E943503FA
:10138000FC01009761F19183808381E0838F148E4B
:101390000FB6F8940F92F583E483128EF383E28301
:1013A000F783E6838FEF858F868FCF010B96928729
:1013B00081872FEF3FEF3487238796878587908B30
:1013C000878710860996938B828B358B248B978B1E
:1013D000868B918F808F118A0F900FBE128EF093A3
:1013E0009901E09398018FEE8AB91BB85A9A8091BF
:1013F00081008F7E8093810080918100886080933E
:1014000081008091800081708093800080918100B4
:10141000856080938100809181008D7F8093810021
:1014200089E09DE3909389008093880080916F000C
:10143000826080936F007894AE014F5F5F4F60E0F1
:1014400071E089E896E00E946A03AE014D5F5F4F4C
:101450006BE071E086E298E00E946A0346E951E0A1
:1014600062E171E08DED95E00E946A03813009F040
:101470004BC0F8942FEF3FEF30938F0720938E07E8
:1014800080939501109296071092950789EF90E04E
:101490009093890080938800809180008C7F809356
:1014A00080008BE08093810080916F008260809348
:1014B0006F00A0919A07B0919B07CD91CDBFDD91B0
:1014C000DEBFFF91EF91DF91CF91BF91AF919F91DF
:1014D0008F917F916F915F914F913F912F911F91CC
:1014E0000F91FF90EF90DF90CF90BF90AF909F90C3
:1014F0008F907F906F905F904F903F902F901F90B4
:101500000F900FBE0F90089590E080E00F900F9025
:101510000F900F900895FB01DC0102C001900D9225
:0C15200041505040D8F70895F894FFCFD8
:10152C00677265656E426C696E6B00627574746F80
:08153C006E0049444C4500001B
:00000001FF
