:100000000C9434000C943E000C943E000C943E0082
:100010000C943E000C943E000C943E000C943E0068
:100020000C943E000C943E000C943E000C94750021
:100030000C943E000C943E000C943E000C943E0048
:100040000C943E000C943E000C943E000C943E0038
:100050000C943E000C943E000C943E000C943E0028
:100060000C943E000C943E0011241FBECFEFD8E04C
:10007000DEBFCDBF0E9493000C94E8000C940000FA
:10008000CF93DF93CDB7DEB728970FB6F894DEBFD6
:100090000FBECDBF6D837E838F83988719821A82AE
:1000A0001B821C8229813A814B815C818D819E81DA
:1000B000AF81B885281739074A075B0760F4898143
:1000C0009A81AB81BC810196A11DB11D89839A8360
:1000D000AB83BC83E7CF81E028960FB6F894DEBFF0
:1000E0000FBECDBFDF91CF9108951F920F92009068
:1000F0005F000F9211248F939F93EF93FF93CF9301
:10010000DF93CDB7DEB78BE290E0FC011082DF9188
:10011000CF91FF91EF919F918F910F9000925F008F
:100120000F901F901895CF93DF93CDB7DEB78AE27B
:1001300090E02FEEFC0120838BE290E0FC01108226
:100140008BE290E02BE230E0F90120812860FC0195
:10015000208381E890E021E830E0F90120812F7EC2
:10016000FC01208381E890E021E830E0F901208162
:100170002860FC01208380E890E020E830E0F9016D
:1001800020812C7FFC01208381E890E021E830E091
:10019000F90120812560FC01208381E890E021E8BD
:1001A00030E0F90120812D7FFC01208388E890E078
:1001B00029E03DE3FC01318320838FE690E02FE6C8
:1001C00030E0F90120812260FC0120837894FFCF88
:0401D000F894FFCFD1
:00000001FF
