:100000000C9434000C943E000C943E000C943E0082
:100010000C943E000C943E000C943E000C943E0068
:100020000C943E000C943E000C943E000C943E0058
:100030000C943E000C943E000C943E000C943E0048
:100040000C943E000C943E000C943E000C943E0038
:100050000C943E000C943E000C943E000C943E0028
:100060000C943E000C943E0011241FBECFEFD8E04C
:10007000DEBFCDBF0E9475000C94A4000C9400005C
:10008000CF93DF93CDB7DEB728970FB6F894DEBFD6
:100090000FBECDBF6D837E838F83988719821A82AE
:1000A0001B821C8229813A814B815C818D819E81DA
:1000B000AF81B885281739074A075B0760F4898143
:1000C0009A81AB81BC810196A11DB11D89839A8360
:1000D000AB83BC83E7CF81E028960FB6F894DEBFF0
:1000E0000FBECDBFDF91CF910895CF93DF93CDB7F2
:1000F000DEB78AE290E02FEEFC0120838BE290E0F5
:10010000FC01108289E290E0FC018081882F90E060
:100110008071992721E0892B09F420E0222351F0F6
:100120008BE290E02BE230E0F90120812C60FC01B1
:100130002083E8CF8BE290E02BE230E0F9012081D0
:0C014000237FFC012083DECFF894FFCF6A
:00000001FF
