:100000000C9434000C9446000C9446000C9446006A
:100010000C9446000C9446000C9446000C94460048
:100020000C9446000C9446000C9446000C94460038
:100030000C9446000C9446000C9446000C94460028
:100040000C9446000C9446000C9446000C94460018
:100050000C9446000C9446000C9446000C94460008
:100060000C9446000C94460011241FBECFEFD8E03C
:10007000DEBFCDBF21E0A0E0B1E001C01D92A23003
:10008000B207E1F70E947D000C94C6000C940000BA
:10009000CF93DF93CDB7DEB728970FB6F894DEBFC6
:1000A0000FBECDBF6D837E838F83988719821A829E
:1000B0001B821C8229813A814B815C818D819E81CA
:1000C000AF81B885281739074A075B0760F4898133
:1000D0009A81AB81BC810196A11DB11D89839A8350
:1000E000AB83BC83E7CF81E028960FB6F894DEBFE0
:1000F0000FBECDBFDF91CF910895CF93DF93CDB7E2
:10010000DEB78AE290E02FEEFC0120838BE290E0E4
:10011000FC01108289E290E0FC018081882F90E050
:100120008071992721E0892B09F420E02223F1F046
:100130008BE290E02BE230E0F90120812860FC01A5
:1001400020838091000190910101892B19F38BE2AA
:1001500090E02BE230E0F901308124E02327FC011C
:1001600020831092010110920001D4CF8BE290E025
:100170002BE230E0F9012081277FFC01208381E020
:1001800090E09093010180930001C4CFF894FFCFD9
:00000001FF
