:100000000C9434000C9449000C9449000C94490061
:100010000C9449000C94CD000C9449000C944900B8
:100020000C9449000C9449000C9449000C9449002C
:100030000C9449000C9449000C9449000C9449001C
:100040000C9449000C9449000C9449000C9449000C
:100050000C9449000C9449000C9449000C944900FC
:100060000C9449000C94490011241FBECFEFD8E036
:10007000DEBFCDBF11E0A0E0B1E0E6E5F2E002C0F6
:1000800005900D92A230B107D9F70E9480000C9420
:1000900029010C940000CF93DF93CDB7DEB72897EA
:1000A0000FB6F894DEBF0FBECDBF6D837E838F8306
:1000B000988719821A821B821C8229813A814B817E
:1000C0005C818D819E81AF81B885281739074A07E9
:1000D0005B0760F489819A81AB81BC810196A11D87
:1000E000B11D89839A83AB83BC83E7CF81E02896D7
:1000F0000FB6F894DEBF0FBECDBFDF91CF9108954C
:10010000CF93DF93CDB7DEB78AE290E02FEEFC010C
:1001100020838BE290E0FC01108288E690E028E6E4
:1001200030E0F90120812460FC0120838DE690E01D
:100130002DE630E0F90120812061FC0120838FE56C
:1001400090E02FE530E0F90120812068FC01208358
:100150008091000190910101892BD1F38BE290E015
:100160002BE230E0F90120812460FC01208360EA69
:1001700076E881E090E00E944B008BE290E02BE279
:1001800030E0F90120812B7FFC01208360EA76E8D2
:1001900081E090E00E944B00DBCF1F920F92009015
:1001A0005F000F9211242F933F934F935F936F93B0
:1001B0007F938F939F93AF93BF93EF93FF93CF93CF
:1001C000DF93CDB7DEB788E690E028E630E0F901AE
:1001D00020812B7FFC0120838091000190910101FF
:1001E000892B71F0109201011092000189E290E0D8
:1001F00029E230E0F90120812B7FFC01208306C039
:1002000081E090E0909301018093000168EE73E03B
:1002100080E090E00E944B0088E690E028E630E025
:10022000F90120812460FC012083DF91CF91FF91AF
:10023000EF91BF91AF919F918F917F916F915F915E
:100240004F913F912F910F9000925F000F901F9060
:060250001895F894FFCFA1
:020256000100A5
:00000001FF
