:100000000C9434000C943E000C943E000C943E0082
:100010000C943E000C943E000C943E000C943E0068
:100020000C943E000C943E000C943E000C943E0058
:100030000C943E000C943E000C943E000C943E0048
:100040000C943E000C943E000C943E000C943E0038
:100050000C943E000C943E000C943E000C943E0028
:100060000C943E000C943E0011241FBECFEFD8E04C
:10007000DEBFCDBF0E9475000C949D000C94000063
:10008000CF93DF93CDB7DEB728970FB6F894DEBFD6
:100090000FBECDBF6D837E838F83988719821A82AE
:1000A0001B821C8229813A814B815C818D819E81DA
:1000B000AF81B885281739074A075B0760F4898143
:1000C0009A81AB81BC810196A11DB11D89839A8360
:1000D000AB83BC83E7CF81E028960FB6F894DEBFF0
:1000E0000FBECDBFDF91CF910895CF93DF93CDB7F2
:1000F000DEB78AE290E02FEEFC0120838BE290E0F5
:10010000FC0110828BE290E02BE230E0F9013081BB
:1001100028E02327FC0120838BE290E02BE230E0F3
:10012000F901308124E02327FC01208360E377E597
:0E01300085E090E00E944000E5CFF894FFCFFC
:00000001FF
