:100000000C9434000C9446000C9446000C9446006A
:100010000C9446000C9446000C9446000C94460048
:100020000C9446000C9446000C9446000C94460038
:100030000C9446000C9446000C9446000C94460028
:100040000C9446000C9446000C9446000C94460018
:100050000C9446000C9446000C9446000C94460008
:100060000C9446000C94460011241FBECFEFD8E03C
:10007000DEBFCDBF21E0A0E0B1E001C01D92A43001
:10008000B207E1F70E947D000C94E7000C94000099
:10009000CF93DF93CDB7DEB728970FB6F894DEBFC6
:1000A0000FBECDBF6D837E838F83988719821A829E
:1000B0001B821C8229813A814B815C818D819E81CA
:1000C000AF81B885281739074A075B0760F4898133
:1000D0009A81AB81BC810196A11DB11D89839A8350
:1000E000AB83BC83E7CF81E028960FB6F894DEBFE0
:1000F0000FBECDBFDF91CF910895CF93DF93CDB7E2
:10010000DEB78AE290E02FEEFC0120838BE290E0E4
:10011000FC01108289E290E0FC018081882F90E050
:100120008071992721E0892B09F420E0222369F1CD
:100130008091020190910301892B89F581E090E083
:10014000909303018093020180910001909101013D
:10015000892B39F481E090E09093010180930001B4
:100160000DC010920101109200018BE290E02BE291
:1001700030E0F9012081277FFC01208368EE73E0E5
:1001800080E090E00E9448000AC0109203011092A3
:10019000020168EE73E080E090E00E9448008091E8
:1001A000000190910101892B09F4B4CF8BE290E01A
:1001B0002BE230E0F901308128E02327FC01208385
:1001C00060E377E585E090E00E944800A3CFF894D3
:0201D000FFCF5F
:00000001FF
