:100000000C9434000C9451000C9451000C94510049
:100010000C9451000C9451000C9451000C9451001C
:100020000C9451000C9451000C9451000C94300528
:100030000C9451000C9451000C9451000C945100FC
:100040000C9451000C9451000C9451000C945100EC
:100050000C9451000C9451000C9451000C945100DC
:100060000C9433050C94510011241FBECFEFD8E03F
:10007000DEBFCDBF11E0A0E0B1E0E0E9FDE002C0ED
:1000800005900D92AA31B107D9F727E0AAE1B1E0B6
:1000900001C01D92AC3CB207E1F70E944D060C94E2
:1000A000C6060C9400008091CB07882321F081E0E4
:1000B000809398070895109298078091BF0729E0D0
:1000C000482F50E0289FF0011124E556F84F908109
:1000D000992349F1A181B28112960D90BC91A02D76
:1000E000B283A183829F900111242256384FA21718
:1000F000B30729F412962D913C913283218399E024
:10010000949FF001959FF00D1124E556F84F018062
:10011000F281E02D2681378130939A072093990749
:100120008093BF0708958150CBCFE091C507F09130
:10013000C6078081811107C08FEF9FEF9093C107A1
:100140008093C0070895E091C507F091C607058028
:10015000F681E02D0680F781E02D82819381EECF3C
:10016000CF93DF939C01FB01DC011196CD91DC91D3
:10017000D383C2838C819D81958384838C819D816F
:10018000DC0113967C936E9312977D836C83318789
:100190002087F90180818F5F8083DF91CF9108955F
:1001A0000F920FB6F8940F921F9211242F923F9244
:1001B0004F925F926F927F928F929F92AF92BF9277
:1001C000CF92DF92EF92FF920F931F932F933F9363
:1001D0004F935F936F937F938F939F93AF93BF934F
:1001E000CF93DF93EF93FF93A0919907B0919A0774
:1001F0000DB60D920EB60D920E945300A091990774
:10020000B0919A07CD91CDBFDD91DEBFFF91EF9107
:10021000DF91CF91BF91AF919F918F917F916F911E
:100220005F914F913F912F911F910F91FF90EF9010
:10023000DF90CF90BF90AF909F908F907F906F9006
:100240005F904F903F902F901F900F900FBE0F9098
:10025000089590E080E008958091A30190E0919549
:100260008195910908958FEF9FEF08958FEF9FEF8C
:100270000895089520919F01260F3327331F2132BF
:100280003105E4F420919E01FC0190E080E02430EF
:1002900061F082E0089530919F012191DC01A25824
:1002A000BE4FA30FB11D2C9301968617A0F380912A
:1002B0009F01680F60939F0180E0089581E0089599
:1002C000CF93DF930F92CDB7DEB7698361E0CE01A4
:1002D00001960E943A0181E090E00F90DF91CF916A
:1002E0000895CF93DF93CB01EA01642F0E943A0176
:1002F000CE01DF91CF91089585ED8093BC00809170
:10030000BC0084FDFCCF10929E010895CF93DF9333
:10031000FC01A085B1858281938124813581EC0126
:100320003D832C83C481D5819B838A8311968D91D3
:100330009C911297E817F90721F41296DC93CE935B
:100340001197118610868C9181508C938C91DF913E
:10035000CF910895CF92DF92EF92FF920F931F9368
:10036000CF93DF938091CB07811196C00091C7078F
:100370001091C8070F5F1F4F1093C8070093C7075E
:1003800001151105B9F48091C5079091C607209118
:10039000C3073091C4073093C6072093C5079093D5
:1003A000C4078093C3078091C2078F5F8093C20701
:1003B0000E9495008091C0079091C107C0E0081786
:1003C0001907E8F4E0919907F0919A07E689B9E0F6
:1003D000EB9FF0011124E556F84F8081823008F040
:1003E000C1E0809198078111C1E08C2FDF91CF91FE
:1003F0001F910F91FF90EF90DF90CF900895D9E07B
:10040000E091C507F091C6078081811107C08FEF89
:100410009FEF9093C1078093C007D4CFE091C507A9
:10042000F091C6070580F681E02DE680F780D701C0
:1004300012968D919C910817190758F36701B2E045
:10044000CB0ED11CC6010E948601F70184899589D3
:10045000892B21F0C7010C960E948601D701569680
:100460008C919091BF07981710F48093BF078D9FD0
:10047000C0011124B6018556984F0E94B000E0914A
:100480009907F0919A07D70156969C9186899817FB
:1004900008F4B6CFC1E0B4CF8091C9079091CA07E4
:1004A00001969093CA078093C907C0E09ECF0F9230
:1004B0000FB6F8940F921F9211242F923F924F92F1
:1004C0005F926F927F928F929F92AF92BF92CF92E4
:1004D000DF92EF92FF920F931F932F933F934F93CF
:1004E0005F936F937F938F939F93AF93BF93CF93BC
:1004F000DF93EF93FF93A0919907B0919A070DB600
:100500000D920EB60D920E94AA0181110E94530015
:10051000A0919907B0919A07CD91CDBFDD91DEBF33
:10052000FF91EF91DF91CF91BF91AF919F918F910B
:100530007F916F915F914F913F912F911F910F91FB
:10054000FF90EF90DF90CF90BF90AF909F908F90F3
:100550007F906F905F904F903F902F901F900F90E3
:100560000FBE0F90089580918D07811107C0809173
:100570009B078230C0F30E94D000F5CF0FB6F894ED
:100580000F92E0919407F0919507868197810296EA
:100590000E94860180918E07815080938E07809102
:1005A0008D07815080938D070F900FBEDCCFCF92C7
:1005B000DF92EF92FF920F931F93CF93DF939C01F3
:1005C0008091CB078F5F8093CB0780918B079091B1
:1005D0008C07892B31F480EB91E090938C0780930A
:1005E0008B078091AD019091AE01280F391F2B3DF3
:1005F00045E0340748F58217930730F500918B07E3
:1006000010918C07080F191F3093AE012093AD0194
:100610000FB6F8940F928091CB0781508093CB074F
:100620008091CB07811104C080918E0781115CC03D
:100630000F900FBEC801DF91CF911F910F91FF90D6
:10064000EF90DF90CF90089510E000E0E1CFE091CF
:10065000A901F091AA01C681D781CE010C960E9412
:1006600086017E0182E0E80EF11CC7010E9486012E
:100670008E899091BF07981710F48093BF078D9DC6
:10068000C0011124B7018556984F0E94B000E09137
:100690009907F0919A079E898689981710F0C09261
:1006A00098078091A4018111D2CFCD2B11F00E9427
:1006B0009500C091C907D091CA07209769F0FF241F
:1006C000F3940E94AA018111F09298072197C9F72B
:1006D0001092CA071092C90780919807882309F4DD
:1006E000A7CF0E94D000A4CFD0E0C0E089E0D82EF0
:1006F000CC24C394D6CF9F92AF92BF92CF92DF9279
:10070000EF92FF920F931F93CF93DF936C01962E7E
:10071000A72EB42E790185E590E00E94D702EC0166
:10072000892B69F48FEFDF91CF911F910F91FF908B
:10073000EF90DF90CF90BF90AF909F90089588E2A8
:1007400090E00E94D7028C01009761F3FC01D08FEA
:10075000C78BE92DFA2DDC0159969F01285F3F4F89
:1007600081918D93882319F0E217F307C9F7F801F7
:1007700010A2B68AB1A212A213861286158A148A12
:100780001187008784E090E08B1991099587848711
:10079000138B028B13A214A215A216A217A2FE019C
:1007A000EC5AFF4F91E19083319782E28083319739
:1007B00023E320833297DC24CD24DC24D182C08241
:1007C00031971082319720E820833197108231973A
:1007D00022E02083319723E02083319724E0208397
:1007E000319725E02083319726E02083319727E059
:1007F0002083319728E02083319729E020833197A7
:1008000020E1208331979083319792E19083319753
:1008100093E19083319794E1908395E19FAF96E1C6
:100820009EAF97E19DAF98E19CAF99E19BAF90E2BD
:100830009AAF91E299AF88AF83E28FAB1EAA1DAA4F
:1008400086E28CAB87E28BAB88E28AAB89E289AB2C
:1008500080E388AB81E38FA7AE96F801D183C08394
:10086000F701118300830FB6F8940F9280918E07E1
:100870008F5F80938E078091990790919A07892BBB
:1008800009F0C4C010939A070093990780918E07CE
:10089000813009F090C0EBE9F7E030E020E08FEF25
:1008A0009FEF69E0AF014D5F5F4F528341839483B7
:1008B00083835683458350874783629FD001639F1C
:1008C000B00D1124A556B84F1C922F5F3F4F39969B
:1008D0002430310539F72FE231E030932E01209397
:1008E0002D019093300180932F013093320120939A
:1008F0003101309334012093330110922C0126E210
:1009000031E03093250120932401909327018093B7
:100910002601309329012093280130932B01209345
:100920002A011092230127EA31E03093A601209397
:10093000A5019093A8018093A7013093AA01209369
:10094000A9013093AC012093AB011092A40122E9DC
:1009500037E030939107209390079093930780930B
:10096000920730939507209394073093970720932D
:10097000960710928F072DE131E030931C012093F0
:100980001B0190931E0180931D0130932001209341
:100990001F01309322012093210110921A018CE251
:1009A00091E09093C6078093C50783E291E090930E
:1009B000C4078093C307809135018F5F8093350111
:1009C000F80186899091BF07981710F48093BF07AC
:1009D000F9E08F9FC0011124B8016E5F7F4F8556EB
:1009E000984F0E94B0000F900FBE8091A001882305
:1009F00059F0E0919907F0919A079689F801868954
:100A0000981710F40E94D00081E08DCE8091A00153
:100A10008111D1CFE0919907F0919A079689F80159
:100A20008689891740F210939A0700939907C3CFDC
:100A30000FB6F8940F928091C7079091C8070F9056
:100A40000FBE08950E94180594E08BB189278BB9D9
:100A5000FCCF0E94180598E08BB189278BB9FCCF99
:100A60000E94570218951F920F920FB60F921124F1
:100A70002F933F934F935F936F937F938F939F93A6
:100A8000AF93BF93EF93FF939091B900892F887F25
:100A9000803509F4BEC008F042C0803309F4B4C008
:100AA00098F5883101F1D0F4883009F4A5C080317F
:100AB00009F4A2C0882309F4ECC0FF91EF91BF9123
:100AC000AF919F918F917F916F915F914F913F91E6
:100AD0002F910F900FBE0F901F901895803209F440
:100AE00093C0883251F790917C0180917B019817D7
:100AF00078F5E0917C0181E08E0F80937C01F0E03D
:100B0000E55AFE4F80817AC0803409F48EC0883463
:100B100009F47CC0883389F6809358016BC0803A11
:100B200009F49DC0B8F5803809F487C050F58036C7
:100B300011F1D8F4883509F6E0917C0181E08E0F3F
:100B400080937C018091BB00F0E0E55AFE4F8083EA
:100B500080915A0181115AC081E08093590184EA41
:100B60008093BC0010929E01A8CF803721F0987E20
:100B7000983609F0A2CF83E080939E01109257012E
:100B80003FC0803909F459C0987E983809F095CF54
:100B900085E837C0883BC9F048F5883A19F0803BB2
:100BA00009F08BCF84E080939E0110923601109261
:100BB0009F01F0E0E0E0099580919F01811105C05F
:100BC00081E080939F0110927E01E091360181E0E7
:100BD0008E0F80933601F0E0E258FE4F80818093C3
:100BE000BB009091360180919F0123C0907F903C83
:100BF00009F063CF85ECB4CF80917D018093BB0079
:100C000085EC8093BC0059CF809358010E947C01F1
:100C100054CFE0917C0181E08E0F80937C01809124
:100C2000BB00F0E0E55AFE4F808390917C018091FB
:100C30007B01981708F0ACCFE3CF80915701803249
:100C400008F0A6CFE091570181E08E0F8093570105
:100C50008091BB00F0E0E95CFE4F8083D1CF85EC52
:100C60008093BC0010929E0180915701803230F435
:100C7000E0915701F0E0E95CFE4F1082609157016E
:100C800070E087E391E0F0E0E0E009951092570111
:100C900014CF10925801BACF089500D000D0CDB72C
:100CA000DEB78AB18C608AB99E012F5F3F4F41E069
:100CB00060E071E082E295E00E947B039E012D5F7F
:100CC0003F4F42E069E071E089E295E00E947B03DA
:100CD00021EA31E040E064E171E083EB92E00E94C0
:100CE0007B03813009F04BC0F8942FEF3FEF309336
:100CF000C1072093C0078093A0011092C8071092EB
:100D0000C70789EF90E090938900809388008091D5
:100D100080008C7F809380008BE0809381008091A5
:100D20006F00826080936F00A0919907B0919A073D
:100D3000CD91CDBFDD91DEBFFF91EF91DF91CF91DE
:100D4000BF91AF919F918F917F916F915F914F91E3
:100D50003F912F911F910F91FF90EF90DF90CF90D7
:100D6000BF90AF909F908F907F906F905F904F90CB
:100D70003F902F901F900F900FBE0F90089590E01E
:100D800080E00F900F900F900F900895F894FFCF90
:100D9000726564426C696E6B00677265656E426C69
:0A0DA000696E6B0049444C450000E9
:00000001FF
